{
  "_format": "hh-sol-artifact-1",
  "contractName": "GtrpNFT",
  "sourceName": "contracts/GtrpNFT.sol",
  "abi": [
    {
      "inputs": [],
      "stateMutability": "nonpayable",
      "type": "constructor"
    },
    {
      "anonymous": false,
      "inputs": [
        {
          "indexed": true,
          "internalType": "address",
          "name": "owner",
          "type": "address"
        },
        {
          "indexed": true,
          "internalType": "address",
          "name": "approved",
          "type": "address"
        },
        {
          "indexed": true,
          "internalType": "uint256",
          "name": "tokenId",
          "type": "uint256"
        }
      ],
      "name": "Approval",
      "type": "event"
    },
    {
      "anonymous": false,
      "inputs": [
        {
          "indexed": true,
          "internalType": "address",
          "name": "owner",
          "type": "address"
        },
        {
          "indexed": true,
          "internalType": "address",
          "name": "operator",
          "type": "address"
        },
        {
          "indexed": false,
          "internalType": "bool",
          "name": "approved",
          "type": "bool"
        }
      ],
      "name": "ApprovalForAll",
      "type": "event"
    },
    {
      "anonymous": false,
      "inputs": [
        {
          "indexed": true,
          "internalType": "address",
          "name": "previousOwner",
          "type": "address"
        },
        {
          "indexed": true,
          "internalType": "address",
          "name": "newOwner",
          "type": "address"
        }
      ],
      "name": "OwnershipTransferred",
      "type": "event"
    },
    {
      "anonymous": false,
      "inputs": [
        {
          "indexed": true,
          "internalType": "address",
          "name": "from",
          "type": "address"
        },
        {
          "indexed": true,
          "internalType": "address",
          "name": "to",
          "type": "address"
        },
        {
          "indexed": true,
          "internalType": "uint256",
          "name": "tokenId",
          "type": "uint256"
        }
      ],
      "name": "Transfer",
      "type": "event"
    },
    {
      "inputs": [],
      "name": "MAX_SUPPLY",
      "outputs": [
        {
          "internalType": "uint256",
          "name": "",
          "type": "uint256"
        }
      ],
      "stateMutability": "view",
      "type": "function"
    },
    {
      "inputs": [],
      "name": "MINT_PRICE",
      "outputs": [
        {
          "internalType": "uint256",
          "name": "",
          "type": "uint256"
        }
      ],
      "stateMutability": "view",
      "type": "function"
    },
    {
      "inputs": [
        {
          "internalType": "address",
          "name": "to",
          "type": "address"
        },
        {
          "internalType": "uint256",
          "name": "tokenId",
          "type": "uint256"
        }
      ],
      "name": "approve",
      "outputs": [],
      "stateMutability": "nonpayable",
      "type": "function"
    },
    {
      "inputs": [
        {
          "internalType": "address",
          "name": "owner",
          "type": "address"
        }
      ],
      "name": "balanceOf",
      "outputs": [
        {
          "internalType": "uint256",
          "name": "",
          "type": "uint256"
        }
      ],
      "stateMutability": "view",
      "type": "function"
    },
    {
      "inputs": [],
      "name": "getAllowance",
      "outputs": [
        {
          "internalType": "uint256",
          "name": "",
          "type": "uint256"
        }
      ],
      "stateMutability": "view",
      "type": "function"
    },
    {
      "inputs": [
        {
          "internalType": "uint256",
          "name": "tokenId",
          "type": "uint256"
        }
      ],
      "name": "getApproved",
      "outputs": [
        {
          "internalType": "address",
          "name": "",
          "type": "address"
        }
      ],
      "stateMutability": "view",
      "type": "function"
    },
    {
      "inputs": [
        {
          "internalType": "address",
          "name": "owner",
          "type": "address"
        },
        {
          "internalType": "address",
          "name": "operator",
          "type": "address"
        }
      ],
      "name": "isApprovedForAll",
      "outputs": [
        {
          "internalType": "bool",
          "name": "",
          "type": "bool"
        }
      ],
      "stateMutability": "view",
      "type": "function"
    },
    {
      "inputs": [],
      "name": "name",
      "outputs": [
        {
          "internalType": "string",
          "name": "",
          "type": "string"
        }
      ],
      "stateMutability": "view",
      "type": "function"
    },
    {
      "inputs": [],
      "name": "owner",
      "outputs": [
        {
          "internalType": "address",
          "name": "",
          "type": "address"
        }
      ],
      "stateMutability": "view",
      "type": "function"
    },
    {
      "inputs": [
        {
          "internalType": "uint256",
          "name": "tokenId",
          "type": "uint256"
        }
      ],
      "name": "ownerOf",
      "outputs": [
        {
          "internalType": "address",
          "name": "",
          "type": "address"
        }
      ],
      "stateMutability": "view",
      "type": "function"
    },
    {
      "inputs": [],
      "name": "renounceOwnership",
      "outputs": [],
      "stateMutability": "nonpayable",
      "type": "function"
    },
    {
      "inputs": [
        {
          "internalType": "address",
          "name": "to",
          "type": "address"
        }
      ],
      "name": "safeMint",
      "outputs": [],
      "stateMutability": "nonpayable",
      "type": "function"
    },
    {
      "inputs": [
        {
          "internalType": "address",
          "name": "from",
          "type": "address"
        },
        {
          "internalType": "address",
          "name": "to",
          "type": "address"
        },
        {
          "internalType": "uint256",
          "name": "tokenId",
          "type": "uint256"
        }
      ],
      "name": "safeTransferFrom",
      "outputs": [],
      "stateMutability": "nonpayable",
      "type": "function"
    },
    {
      "inputs": [
        {
          "internalType": "address",
          "name": "from",
          "type": "address"
        },
        {
          "internalType": "address",
          "name": "to",
          "type": "address"
        },
        {
          "internalType": "uint256",
          "name": "tokenId",
          "type": "uint256"
        },
        {
          "internalType": "bytes",
          "name": "data",
          "type": "bytes"
        }
      ],
      "name": "safeTransferFrom",
      "outputs": [],
      "stateMutability": "nonpayable",
      "type": "function"
    },
    {
      "inputs": [
        {
          "internalType": "address",
          "name": "operator",
          "type": "address"
        },
        {
          "internalType": "bool",
          "name": "approved",
          "type": "bool"
        }
      ],
      "name": "setApprovalForAll",
      "outputs": [],
      "stateMutability": "nonpayable",
      "type": "function"
    },
    {
      "inputs": [
        {
          "internalType": "bytes4",
          "name": "interfaceId",
          "type": "bytes4"
        }
      ],
      "name": "supportsInterface",
      "outputs": [
        {
          "internalType": "bool",
          "name": "",
          "type": "bool"
        }
      ],
      "stateMutability": "view",
      "type": "function"
    },
    {
      "inputs": [],
      "name": "symbol",
      "outputs": [
        {
          "internalType": "string",
          "name": "",
          "type": "string"
        }
      ],
      "stateMutability": "view",
      "type": "function"
    },
    {
      "inputs": [
        {
          "internalType": "uint256",
          "name": "index",
          "type": "uint256"
        }
      ],
      "name": "tokenByIndex",
      "outputs": [
        {
          "internalType": "uint256",
          "name": "",
          "type": "uint256"
        }
      ],
      "stateMutability": "view",
      "type": "function"
    },
    {
      "inputs": [
        {
          "internalType": "address",
          "name": "owner",
          "type": "address"
        },
        {
          "internalType": "uint256",
          "name": "index",
          "type": "uint256"
        }
      ],
      "name": "tokenOfOwnerByIndex",
      "outputs": [
        {
          "internalType": "uint256",
          "name": "",
          "type": "uint256"
        }
      ],
      "stateMutability": "view",
      "type": "function"
    },
    {
      "inputs": [
        {
          "internalType": "uint256",
          "name": "tokenId",
          "type": "uint256"
        }
      ],
      "name": "tokenURI",
      "outputs": [
        {
          "internalType": "string",
          "name": "",
          "type": "string"
        }
      ],
      "stateMutability": "view",
      "type": "function"
    },
    {
      "inputs": [],
      "name": "totalSupply",
      "outputs": [
        {
          "internalType": "uint256",
          "name": "",
          "type": "uint256"
        }
      ],
      "stateMutability": "view",
      "type": "function"
    },
    {
      "inputs": [
        {
          "internalType": "address",
          "name": "from",
          "type": "address"
        },
        {
          "internalType": "address",
          "name": "to",
          "type": "address"
        },
        {
          "internalType": "uint256",
          "name": "tokenId",
          "type": "uint256"
        }
      ],
      "name": "transferFrom",
      "outputs": [],
      "stateMutability": "nonpayable",
      "type": "function"
    },
    {
      "inputs": [
        {
          "internalType": "address",
          "name": "newOwner",
          "type": "address"
        }
      ],
      "name": "transferOwnership",
      "outputs": [],
      "stateMutability": "nonpayable",
      "type": "function"
    },
    {
      "inputs": [],
      "name": "withdrawPayments",
      "outputs": [],
      "stateMutability": "nonpayable",
      "type": "function"
    }
  ],
  "bytecode": "0x60806040527387a725b3df717c3c0a36ebc5f34bfa3c618af0fd600d60006101000a81548173ffffffffffffffffffffffffffffffffffffffff021916908373ffffffffffffffffffffffffffffffffffffffff1602179055503480156200006657600080fd5b506040518060400160405280600781526020017f477472704e4654000000000000000000000000000000000000000000000000008152506040518060400160405280600481526020017f47545250000000000000000000000000000000000000000000000000000000008152508160009081620000e4919062000467565b508060019081620000f6919062000467565b505050620001196200010d6200011f60201b60201c565b6200012760201b60201c565b6200054e565b600033905090565b6000600b60009054906101000a900473ffffffffffffffffffffffffffffffffffffffff16905081600b60006101000a81548173ffffffffffffffffffffffffffffffffffffffff021916908373ffffffffffffffffffffffffffffffffffffffff1602179055508173ffffffffffffffffffffffffffffffffffffffff168173ffffffffffffffffffffffffffffffffffffffff167f8be0079c531659141344cd1fd0a4f28419497f9722a3daafe3b4186f6b6457e060405160405180910390a35050565b600081519050919050565b7f4e487b7100000000000000000000000000000000000000000000000000000000600052604160045260246000fd5b7f4e487b7100000000000000000000000000000000000000000000000000000000600052602260045260246000fd5b600060028204905060018216806200026f57607f821691505b60208210810362000285576200028462000227565b5b50919050565b60008190508160005260206000209050919050565b60006020601f8301049050919050565b600082821b905092915050565b600060088302620002ef7fffffffffffffffffffffffffffffffffffffffffffffffffffffffffffffffff82620002b0565b620002fb8683620002b0565b95508019841693508086168417925050509392505050565b6000819050919050565b6000819050919050565b600062000348620003426200033c8462000313565b6200031d565b62000313565b9050919050565b6000819050919050565b620003648362000327565b6200037c62000373826200034f565b848454620002bd565b825550505050565b600090565b6200039362000384565b620003a081848462000359565b505050565b5b81811015620003c857620003bc60008262000389565b600181019050620003a6565b5050565b601f8211156200041757620003e1816200028b565b620003ec84620002a0565b81016020851015620003fc578190505b620004146200040b85620002a0565b830182620003a5565b50505b505050565b600082821c905092915050565b60006200043c600019846008026200041c565b1980831691505092915050565b600062000457838362000429565b9150826002028217905092915050565b6200047282620001ed565b67ffffffffffffffff8111156200048e576200048d620001f8565b5b6200049a825462000256565b620004a7828285620003cc565b600060209050601f831160018114620004df5760008415620004ca578287015190505b620004d6858262000449565b86555062000546565b601f198416620004ef866200028b565b60005b828110156200051957848901518255600182019150602085019450602081019050620004f2565b8683101562000539578489015162000535601f89168262000429565b8355505b6001600288020188555050505b505050505050565b613bb8806200055e6000396000f3fe608060405234801561001057600080fd5b50600436106101585760003560e01c80636352211e116100c3578063a22cb4651161007c578063a22cb465146103b5578063b88d4fde146103d1578063c002d23d146103ed578063c87b56dd1461040b578063e985e9c51461043b578063f2fde38b1461046b57610158565b80636352211e146102f157806370a0823114610321578063715018a6146103515780638da5cb5b1461035b57806395d89b4114610379578063973e9b8b1461039757610158565b80632f745c59116101155780632f745c591461023157806332cb6b0c1461026157806340d097c31461027f57806342842e0e1461029b5780634f6ccce7146102b75780636103d70b146102e757610158565b806301ffc9a71461015d57806306fdde031461018d578063081812fc146101ab578063095ea7b3146101db57806318160ddd146101f757806323b872dd14610215575b600080fd5b6101776004803603810190610172919061246f565b610487565b60405161018491906124b7565b60405180910390f35b610195610499565b6040516101a29190612562565b60405180910390f35b6101c560048036038101906101c091906125ba565b61052b565b6040516101d29190612628565b60405180910390f35b6101f560048036038101906101f0919061266f565b610571565b005b6101ff610688565b60405161020c91906126be565b60405180910390f35b61022f600480360381019061022a91906126d9565b610695565b005b61024b6004803603810190610246919061266f565b6106f5565b60405161025891906126be565b60405180910390f35b61026961079a565b60405161027691906126be565b60405180910390f35b6102996004803603810190610294919061272c565b6107a0565b005b6102b560048036038101906102b091906126d9565b610960565b005b6102d160048036038101906102cc91906125ba565b610980565b6040516102de91906126be565b60405180910390f35b6102ef6109f1565b005b61030b600480360381019061030691906125ba565b610a49565b6040516103189190612628565b60405180910390f35b61033b6004803603810190610336919061272c565b610afa565b60405161034891906126be565b60405180910390f35b610359610bb1565b005b610363610bc5565b6040516103709190612628565b60405180910390f35b610381610bef565b60405161038e9190612562565b60405180910390f35b61039f610c81565b6040516103ac91906126be565b60405180910390f35b6103cf60048036038101906103ca9190612785565b610d26565b005b6103eb60048036038101906103e691906128fa565b610d3c565b005b6103f5610d9e565b60405161040291906126be565b60405180910390f35b610425600480360381019061042091906125ba565b610da3565b6040516104329190612562565b60405180910390f35b6104556004803603810190610450919061297d565b610db5565b60405161046291906124b7565b60405180910390f35b6104856004803603810190610480919061272c565b610e49565b005b600061049282610ecc565b9050919050565b6060600080546104a8906129ec565b80601f01602080910402602001604051908101604052809291908181526020018280546104d4906129ec565b80156105215780601f106104f657610100808354040283529160200191610521565b820191906000526020600020905b81548152906001019060200180831161050457829003601f168201915b5050505050905090565b600061053682610f46565b6004600083815260200190815260200160002060009054906101000a900473ffffffffffffffffffffffffffffffffffffffff169050919050565b600061057c82610a49565b90508073ffffffffffffffffffffffffffffffffffffffff168373ffffffffffffffffffffffffffffffffffffffff16036105ec576040517f08c379a00000000000000000000000000000000000000000000000000000000081526004016105e390612a8f565b60405180910390fd5b8073ffffffffffffffffffffffffffffffffffffffff1661060b610f91565b73ffffffffffffffffffffffffffffffffffffffff16148061063a575061063981610634610f91565b610db5565b5b610679576040517f08c379a000000000000000000000000000000000000000000000000000000000815260040161067090612b21565b60405180910390fd5b6106838383610f99565b505050565b6000600880549050905090565b6106a66106a0610f91565b82611052565b6106e5576040517f08c379a00000000000000000000000000000000000000000000000000000000081526004016106dc90612bb3565b60405180910390fd5b6106f08383836110e7565b505050565b600061070083610afa565b8210610741576040517f08c379a000000000000000000000000000000000000000000000000000000000815260040161073890612c45565b60405180910390fd5b600660008473ffffffffffffffffffffffffffffffffffffffff1673ffffffffffffffffffffffffffffffffffffffff168152602001908152602001600020600083815260200190815260200160002054905092915050565b61271081565b6127106107ab610688565b106107eb576040517f08c379a00000000000000000000000000000000000000000000000000000000081526004016107e290612cb1565b60405180910390fd5b600d60009054906101000a900473ffffffffffffffffffffffffffffffffffffffff1673ffffffffffffffffffffffffffffffffffffffff166323b872dd3330670de0b6b3a764000060646108409190612d00565b6040518463ffffffff1660e01b815260040161085e93929190612d42565b6020604051808303816000875af115801561087d573d6000803e3d6000fd5b505050506040513d601f19601f820116820180604052508101906108a19190612d8e565b6108e0576040517f08c379a00000000000000000000000000000000000000000000000000000000081526004016108d790612e2d565b60405180910390fd5b60006108ec601e61134d565b905060006108fa600c61138f565b9050610906600c61139d565b61091083826113b3565b61095b81604051806080016040528060518152602001613b3260519139610936856113d1565b604051602001610947929190612eaf565b604051602081830303815290604052611531565b505050565b61097b83838360405180602001604052806000815250610d3c565b505050565b600061098a610688565b82106109cb576040517f08c379a00000000000000000000000000000000000000000000000000000000081526004016109c290612f54565b60405180910390fd5b600882815481106109df576109de612f74565b5b90600052602060002001549050919050565b6109f961159e565b610a01610bc5565b73ffffffffffffffffffffffffffffffffffffffff166108fc479081150290604051600060405180830381858888f19350505050158015610a46573d6000803e3d6000fd5b50565b6000806002600084815260200190815260200160002060009054906101000a900473ffffffffffffffffffffffffffffffffffffffff169050600073ffffffffffffffffffffffffffffffffffffffff168173ffffffffffffffffffffffffffffffffffffffff1603610af1576040517f08c379a0000000000000000000000000000000000000000000000000000000008152600401610ae890612fef565b60405180910390fd5b80915050919050565b60008073ffffffffffffffffffffffffffffffffffffffff168273ffffffffffffffffffffffffffffffffffffffff1603610b6a576040517f08c379a0000000000000000000000000000000000000000000000000000000008152600401610b6190613081565b60405180910390fd5b600360008373ffffffffffffffffffffffffffffffffffffffff1673ffffffffffffffffffffffffffffffffffffffff168152602001908152602001600020549050919050565b610bb961159e565b610bc3600061161c565b565b6000600b60009054906101000a900473ffffffffffffffffffffffffffffffffffffffff16905090565b606060018054610bfe906129ec565b80601f0160208091040260200160405190810160405280929190818152602001828054610c2a906129ec565b8015610c775780601f10610c4c57610100808354040283529160200191610c77565b820191906000526020600020905b815481529060010190602001808311610c5a57829003601f168201915b5050505050905090565b6000600d60009054906101000a900473ffffffffffffffffffffffffffffffffffffffff1673ffffffffffffffffffffffffffffffffffffffff1663dd62ed3e33306040518363ffffffff1660e01b8152600401610ce09291906130a1565b602060405180830381865afa158015610cfd573d6000803e3d6000fd5b505050506040513d601f19601f82011682018060405250810190610d2191906130df565b905090565b610d38610d31610f91565b83836116e2565b5050565b610d4d610d47610f91565b83611052565b610d8c576040517f08c379a0000000000000000000000000000000000000000000000000000000008152600401610d8390612bb3565b60405180910390fd5b610d988484848461184e565b50505050565b606481565b6060610dae826118aa565b9050919050565b6000600560008473ffffffffffffffffffffffffffffffffffffffff1673ffffffffffffffffffffffffffffffffffffffff16815260200190815260200160002060008373ffffffffffffffffffffffffffffffffffffffff1673ffffffffffffffffffffffffffffffffffffffff16815260200190815260200160002060009054906101000a900460ff16905092915050565b610e5161159e565b600073ffffffffffffffffffffffffffffffffffffffff168173ffffffffffffffffffffffffffffffffffffffff1603610ec0576040517f08c379a0000000000000000000000000000000000000000000000000000000008152600401610eb79061317e565b60405180910390fd5b610ec98161161c565b50565b60007f780e9d63000000000000000000000000000000000000000000000000000000007bffffffffffffffffffffffffffffffffffffffffffffffffffffffff1916827bffffffffffffffffffffffffffffffffffffffffffffffffffffffff19161480610f3f5750610f3e826119bc565b5b9050919050565b610f4f81611a9e565b610f8e576040517f08c379a0000000000000000000000000000000000000000000000000000000008152600401610f8590612fef565b60405180910390fd5b50565b600033905090565b816004600083815260200190815260200160002060006101000a81548173ffffffffffffffffffffffffffffffffffffffff021916908373ffffffffffffffffffffffffffffffffffffffff160217905550808273ffffffffffffffffffffffffffffffffffffffff1661100c83610a49565b73ffffffffffffffffffffffffffffffffffffffff167f8c5be1e5ebec7d5bd14f71427d1e84f3dd0314c0f7b2291e5b200ac8c7c3b92560405160405180910390a45050565b60008061105e83610a49565b90508073ffffffffffffffffffffffffffffffffffffffff168473ffffffffffffffffffffffffffffffffffffffff1614806110a0575061109f8185610db5565b5b806110de57508373ffffffffffffffffffffffffffffffffffffffff166110c68461052b565b73ffffffffffffffffffffffffffffffffffffffff16145b91505092915050565b8273ffffffffffffffffffffffffffffffffffffffff1661110782610a49565b73ffffffffffffffffffffffffffffffffffffffff161461115d576040517f08c379a000000000000000000000000000000000000000000000000000000000815260040161115490613210565b60405180910390fd5b600073ffffffffffffffffffffffffffffffffffffffff168273ffffffffffffffffffffffffffffffffffffffff16036111cc576040517f08c379a00000000000000000000000000000000000000000000000000000000081526004016111c3906132a2565b60405180910390fd5b6111d7838383611b0a565b6111e2600082610f99565b6001600360008573ffffffffffffffffffffffffffffffffffffffff1673ffffffffffffffffffffffffffffffffffffffff168152602001908152602001600020600082825461123291906132c2565b925050819055506001600360008473ffffffffffffffffffffffffffffffffffffffff1673ffffffffffffffffffffffffffffffffffffffff168152602001908152602001600020600082825461128991906132f6565b92505081905550816002600083815260200190815260200160002060006101000a81548173ffffffffffffffffffffffffffffffffffffffff021916908373ffffffffffffffffffffffffffffffffffffffff160217905550808273ffffffffffffffffffffffffffffffffffffffff168473ffffffffffffffffffffffffffffffffffffffff167fddf252ad1be2c89b69c2b068fc378daa952ba7f163c4a11628f55a4df523b3ef60405160405180910390a4611348838383611b1a565b505050565b60008142443360405160200161136593929190613393565b6040516020818303038152906040528051906020012060001c61138891906133ff565b9050919050565b600081600001549050919050565b6001816000016000828254019250508190555050565b6113cd828260405180602001604052806000815250611b1f565b5050565b606060008203611418576040518060400160405280600181526020017f3000000000000000000000000000000000000000000000000000000000000000815250905061152c565b600082905060005b6000821461144a57808061143390613430565b915050600a826114439190613478565b9150611420565b60008167ffffffffffffffff811115611466576114656127cf565b5b6040519080825280601f01601f1916602001820160405280156114985781602001600182028036833780820191505090505b5090505b60008514611525576001826114b191906132c2565b9150600a856114c091906133ff565b60306114cc91906132f6565b60f81b8183815181106114e2576114e1612f74565b5b60200101907effffffffffffffffffffffffffffffffffffffffffffffffffffffffffffff1916908160001a905350600a8561151e9190613478565b945061149c565b8093505050505b919050565b61153a82611a9e565b611579576040517f08c379a00000000000000000000000000000000000000000000000000000000081526004016115709061351b565b60405180910390fd5b80600a6000848152602001908152602001600020908161159991906136e7565b505050565b6115a6610f91565b73ffffffffffffffffffffffffffffffffffffffff166115c4610bc5565b73ffffffffffffffffffffffffffffffffffffffff161461161a576040517f08c379a000000000000000000000000000000000000000000000000000000000815260040161161190613805565b60405180910390fd5b565b6000600b60009054906101000a900473ffffffffffffffffffffffffffffffffffffffff16905081600b60006101000a81548173ffffffffffffffffffffffffffffffffffffffff021916908373ffffffffffffffffffffffffffffffffffffffff1602179055508173ffffffffffffffffffffffffffffffffffffffff168173ffffffffffffffffffffffffffffffffffffffff167f8be0079c531659141344cd1fd0a4f28419497f9722a3daafe3b4186f6b6457e060405160405180910390a35050565b8173ffffffffffffffffffffffffffffffffffffffff168373ffffffffffffffffffffffffffffffffffffffff1603611750576040517f08c379a000000000000000000000000000000000000000000000000000000000815260040161174790613871565b60405180910390fd5b80600560008573ffffffffffffffffffffffffffffffffffffffff1673ffffffffffffffffffffffffffffffffffffffff16815260200190815260200160002060008473ffffffffffffffffffffffffffffffffffffffff1673ffffffffffffffffffffffffffffffffffffffff16815260200190815260200160002060006101000a81548160ff0219169083151502179055508173ffffffffffffffffffffffffffffffffffffffff168373ffffffffffffffffffffffffffffffffffffffff167f17307eab39ab6107e8899845ad3d59bd9653f200f220920489ca2b5937696c318360405161184191906124b7565b60405180910390a3505050565b6118598484846110e7565b61186584848484611b7a565b6118a4576040517f08c379a000000000000000000000000000000000000000000000000000000000815260040161189b90613903565b60405180910390fd5b50505050565b60606118b582610f46565b6000600a600084815260200190815260200160002080546118d5906129ec565b80601f0160208091040260200160405190810160405280929190818152602001828054611901906129ec565b801561194e5780601f106119235761010080835404028352916020019161194e565b820191906000526020600020905b81548152906001019060200180831161193157829003601f168201915b50505050509050600061195f611d01565b905060008151036119745781925050506119b7565b6000825111156119a9578082604051602001611991929190613923565b604051602081830303815290604052925050506119b7565b6119b284611d18565b925050505b919050565b60007f80ac58cd000000000000000000000000000000000000000000000000000000007bffffffffffffffffffffffffffffffffffffffffffffffffffffffff1916827bffffffffffffffffffffffffffffffffffffffffffffffffffffffff19161480611a8757507f5b5e139f000000000000000000000000000000000000000000000000000000007bffffffffffffffffffffffffffffffffffffffffffffffffffffffff1916827bffffffffffffffffffffffffffffffffffffffffffffffffffffffff1916145b80611a975750611a9682611d80565b5b9050919050565b60008073ffffffffffffffffffffffffffffffffffffffff166002600084815260200190815260200160002060009054906101000a900473ffffffffffffffffffffffffffffffffffffffff1673ffffffffffffffffffffffffffffffffffffffff1614159050919050565b611b15838383611dea565b505050565b505050565b611b298383611efc565b611b366000848484611b7a565b611b75576040517f08c379a0000000000000000000000000000000000000000000000000000000008152600401611b6c90613903565b60405180910390fd5b505050565b6000611b9b8473ffffffffffffffffffffffffffffffffffffffff166120d5565b15611cf4578373ffffffffffffffffffffffffffffffffffffffff1663150b7a02611bc4610f91565b8786866040518563ffffffff1660e01b8152600401611be6949392919061399c565b6020604051808303816000875af1925050508015611c2257506040513d601f19601f82011682018060405250810190611c1f91906139fd565b60015b611ca4573d8060008114611c52576040519150601f19603f3d011682016040523d82523d6000602084013e611c57565b606091505b506000815103611c9c576040517f08c379a0000000000000000000000000000000000000000000000000000000008152600401611c9390613903565b60405180910390fd5b805181602001fd5b63150b7a0260e01b7bffffffffffffffffffffffffffffffffffffffffffffffffffffffff1916817bffffffffffffffffffffffffffffffffffffffffffffffffffffffff191614915050611cf9565b600190505b949350505050565b606060405180602001604052806000815250905090565b6060611d2382610f46565b6000611d2d611d01565b90506000815111611d4d5760405180602001604052806000815250611d78565b80611d57846113d1565b604051602001611d68929190613923565b6040516020818303038152906040525b915050919050565b60007f01ffc9a7000000000000000000000000000000000000000000000000000000007bffffffffffffffffffffffffffffffffffffffffffffffffffffffff1916827bffffffffffffffffffffffffffffffffffffffffffffffffffffffff1916149050919050565b611df58383836120f8565b600073ffffffffffffffffffffffffffffffffffffffff168373ffffffffffffffffffffffffffffffffffffffff1603611e3757611e32816120fd565b611e76565b8173ffffffffffffffffffffffffffffffffffffffff168373ffffffffffffffffffffffffffffffffffffffff1614611e7557611e748382612146565b5b5b600073ffffffffffffffffffffffffffffffffffffffff168273ffffffffffffffffffffffffffffffffffffffff1603611eb857611eb3816122b3565b611ef7565b8273ffffffffffffffffffffffffffffffffffffffff168273ffffffffffffffffffffffffffffffffffffffff1614611ef657611ef58282612384565b5b5b505050565b600073ffffffffffffffffffffffffffffffffffffffff168273ffffffffffffffffffffffffffffffffffffffff1603611f6b576040517f08c379a0000000000000000000000000000000000000000000000000000000008152600401611f6290613a76565b60405180910390fd5b611f7481611a9e565b15611fb4576040517f08c379a0000000000000000000000000000000000000000000000000000000008152600401611fab90613ae2565b60405180910390fd5b611fc060008383611b0a565b6001600360008473ffffffffffffffffffffffffffffffffffffffff1673ffffffffffffffffffffffffffffffffffffffff168152602001908152602001600020600082825461201091906132f6565b92505081905550816002600083815260200190815260200160002060006101000a81548173ffffffffffffffffffffffffffffffffffffffff021916908373ffffffffffffffffffffffffffffffffffffffff160217905550808273ffffffffffffffffffffffffffffffffffffffff16600073ffffffffffffffffffffffffffffffffffffffff167fddf252ad1be2c89b69c2b068fc378daa952ba7f163c4a11628f55a4df523b3ef60405160405180910390a46120d160008383611b1a565b5050565b6000808273ffffffffffffffffffffffffffffffffffffffff163b119050919050565b505050565b6008805490506009600083815260200190815260200160002081905550600881908060018154018082558091505060019003906000526020600020016000909190919091505550565b6000600161215384610afa565b61215d91906132c2565b9050600060076000848152602001908152602001600020549050818114612242576000600660008673ffffffffffffffffffffffffffffffffffffffff1673ffffffffffffffffffffffffffffffffffffffff168152602001908152602001600020600084815260200190815260200160002054905080600660008773ffffffffffffffffffffffffffffffffffffffff1673ffffffffffffffffffffffffffffffffffffffff168152602001908152602001600020600084815260200190815260200160002081905550816007600083815260200190815260200160002081905550505b6007600084815260200190815260200160002060009055600660008573ffffffffffffffffffffffffffffffffffffffff1673ffffffffffffffffffffffffffffffffffffffff16815260200190815260200160002060008381526020019081526020016000206000905550505050565b600060016008805490506122c791906132c2565b90506000600960008481526020019081526020016000205490506000600883815481106122f7576122f6612f74565b5b90600052602060002001549050806008838154811061231957612318612f74565b5b90600052602060002001819055508160096000838152602001908152602001600020819055506009600085815260200190815260200160002060009055600880548061236857612367613b02565b5b6001900381819060005260206000200160009055905550505050565b600061238f83610afa565b905081600660008573ffffffffffffffffffffffffffffffffffffffff1673ffffffffffffffffffffffffffffffffffffffff168152602001908152602001600020600083815260200190815260200160002081905550806007600084815260200190815260200160002081905550505050565b6000604051905090565b600080fd5b600080fd5b60007fffffffff0000000000000000000000000000000000000000000000000000000082169050919050565b61244c81612417565b811461245757600080fd5b50565b60008135905061246981612443565b92915050565b6000602082840312156124855761248461240d565b5b60006124938482850161245a565b91505092915050565b60008115159050919050565b6124b18161249c565b82525050565b60006020820190506124cc60008301846124a8565b92915050565b600081519050919050565b600082825260208201905092915050565b60005b8381101561250c5780820151818401526020810190506124f1565b60008484015250505050565b6000601f19601f8301169050919050565b6000612534826124d2565b61253e81856124dd565b935061254e8185602086016124ee565b61255781612518565b840191505092915050565b6000602082019050818103600083015261257c8184612529565b905092915050565b6000819050919050565b61259781612584565b81146125a257600080fd5b50565b6000813590506125b48161258e565b92915050565b6000602082840312156125d0576125cf61240d565b5b60006125de848285016125a5565b91505092915050565b600073ffffffffffffffffffffffffffffffffffffffff82169050919050565b6000612612826125e7565b9050919050565b61262281612607565b82525050565b600060208201905061263d6000830184612619565b92915050565b61264c81612607565b811461265757600080fd5b50565b60008135905061266981612643565b92915050565b600080604083850312156126865761268561240d565b5b60006126948582860161265a565b92505060206126a5858286016125a5565b9150509250929050565b6126b881612584565b82525050565b60006020820190506126d360008301846126af565b92915050565b6000806000606084860312156126f2576126f161240d565b5b60006127008682870161265a565b93505060206127118682870161265a565b9250506040612722868287016125a5565b9150509250925092565b6000602082840312156127425761274161240d565b5b60006127508482850161265a565b91505092915050565b6127628161249c565b811461276d57600080fd5b50565b60008135905061277f81612759565b92915050565b6000806040838503121561279c5761279b61240d565b5b60006127aa8582860161265a565b92505060206127bb85828601612770565b9150509250929050565b600080fd5b600080fd5b7f4e487b7100000000000000000000000000000000000000000000000000000000600052604160045260246000fd5b61280782612518565b810181811067ffffffffffffffff82111715612826576128256127cf565b5b80604052505050565b6000612839612403565b905061284582826127fe565b919050565b600067ffffffffffffffff821115612865576128646127cf565b5b61286e82612518565b9050602081019050919050565b82818337600083830152505050565b600061289d6128988461284a565b61282f565b9050828152602081018484840111156128b9576128b86127ca565b5b6128c484828561287b565b509392505050565b600082601f8301126128e1576128e06127c5565b5b81356128f184826020860161288a565b91505092915050565b600080600080608085870312156129145761291361240d565b5b60006129228782880161265a565b94505060206129338782880161265a565b9350506040612944878288016125a5565b925050606085013567ffffffffffffffff81111561296557612964612412565b5b612971878288016128cc565b91505092959194509250565b600080604083850312156129945761299361240d565b5b60006129a28582860161265a565b92505060206129b38582860161265a565b9150509250929050565b7f4e487b7100000000000000000000000000000000000000000000000000000000600052602260045260246000fd5b60006002820490506001821680612a0457607f821691505b602082108103612a1757612a166129bd565b5b50919050565b7f4552433732313a20617070726f76616c20746f2063757272656e74206f776e6560008201527f7200000000000000000000000000000000000000000000000000000000000000602082015250565b6000612a796021836124dd565b9150612a8482612a1d565b604082019050919050565b60006020820190508181036000830152612aa881612a6c565b9050919050565b7f4552433732313a20617070726f76652063616c6c6572206973206e6f7420746f60008201527f6b656e206f776e6572206e6f7220617070726f76656420666f7220616c6c0000602082015250565b6000612b0b603e836124dd565b9150612b1682612aaf565b604082019050919050565b60006020820190508181036000830152612b3a81612afe565b9050919050565b7f4552433732313a2063616c6c6572206973206e6f7420746f6b656e206f776e6560008201527f72206e6f7220617070726f766564000000000000000000000000000000000000602082015250565b6000612b9d602e836124dd565b9150612ba882612b41565b604082019050919050565b60006020820190508181036000830152612bcc81612b90565b9050919050565b7f455243373231456e756d657261626c653a206f776e657220696e646578206f7560008201527f74206f6620626f756e6473000000000000000000000000000000000000000000602082015250565b6000612c2f602b836124dd565b9150612c3a82612bd3565b604082019050919050565b60006020820190508181036000830152612c5e81612c22565b9050919050565b7f4d617820737570706c7920726561636865640000000000000000000000000000600082015250565b6000612c9b6012836124dd565b9150612ca682612c65565b602082019050919050565b60006020820190508181036000830152612cca81612c8e565b9050919050565b7f4e487b7100000000000000000000000000000000000000000000000000000000600052601160045260246000fd5b6000612d0b82612584565b9150612d1683612584565b9250828202612d2481612584565b91508282048414831517612d3b57612d3a612cd1565b5b5092915050565b6000606082019050612d576000830186612619565b612d646020830185612619565b612d7160408301846126af565b949350505050565b600081519050612d8881612759565b92915050565b600060208284031215612da457612da361240d565b5b6000612db284828501612d79565b91505092915050565b7f506c6561736520617070726f766520746f6b656e73206265666f7265206d696e60008201527f74696e6700000000000000000000000000000000000000000000000000000000602082015250565b6000612e176024836124dd565b9150612e2282612dbb565b604082019050919050565b60006020820190508181036000830152612e4681612e0a565b9050919050565b600081905092915050565b6000612e63826124d2565b612e6d8185612e4d565b9350612e7d8185602086016124ee565b80840191505092915050565b7f2e6a736f6e000000000000000000000000000000000000000000000000000000815250565b6000612ebb8285612e58565b9150612ec78284612e58565b9150612ed282612e89565b6005820191508190509392505050565b7f455243373231456e756d657261626c653a20676c6f62616c20696e646578206f60008201527f7574206f6620626f756e64730000000000000000000000000000000000000000602082015250565b6000612f3e602c836124dd565b9150612f4982612ee2565b604082019050919050565b60006020820190508181036000830152612f6d81612f31565b9050919050565b7f4e487b7100000000000000000000000000000000000000000000000000000000600052603260045260246000fd5b7f4552433732313a20696e76616c696420746f6b656e2049440000000000000000600082015250565b6000612fd96018836124dd565b9150612fe482612fa3565b602082019050919050565b6000602082019050818103600083015261300881612fcc565b9050919050565b7f4552433732313a2061646472657373207a65726f206973206e6f74206120766160008201527f6c6964206f776e65720000000000000000000000000000000000000000000000602082015250565b600061306b6029836124dd565b91506130768261300f565b604082019050919050565b6000602082019050818103600083015261309a8161305e565b9050919050565b60006040820190506130b66000830185612619565b6130c36020830184612619565b9392505050565b6000815190506130d98161258e565b92915050565b6000602082840312156130f5576130f461240d565b5b6000613103848285016130ca565b91505092915050565b7f4f776e61626c653a206e6577206f776e657220697320746865207a65726f206160008201527f6464726573730000000000000000000000000000000000000000000000000000602082015250565b60006131686026836124dd565b91506131738261310c565b604082019050919050565b600060208201905081810360008301526131978161315b565b9050919050565b7f4552433732313a207472616e736665722066726f6d20696e636f72726563742060008201527f6f776e6572000000000000000000000000000000000000000000000000000000602082015250565b60006131fa6025836124dd565b91506132058261319e565b604082019050919050565b60006020820190508181036000830152613229816131ed565b9050919050565b7f4552433732313a207472616e7366657220746f20746865207a65726f2061646460008201527f7265737300000000000000000000000000000000000000000000000000000000602082015250565b600061328c6024836124dd565b915061329782613230565b604082019050919050565b600060208201905081810360008301526132bb8161327f565b9050919050565b60006132cd82612584565b91506132d883612584565b92508282039050818111156132f0576132ef612cd1565b5b92915050565b600061330182612584565b915061330c83612584565b925082820190508082111561332457613323612cd1565b5b92915050565b6000819050919050565b61334561334082612584565b61332a565b82525050565b60008160601b9050919050565b60006133638261334b565b9050919050565b600061337582613358565b9050919050565b61338d61338882612607565b61336a565b82525050565b600061339f8286613334565b6020820191506133af8285613334565b6020820191506133bf828461337c565b601482019150819050949350505050565b7f4e487b7100000000000000000000000000000000000000000000000000000000600052601260045260246000fd5b600061340a82612584565b915061341583612584565b925082613425576134246133d0565b5b828206905092915050565b600061343b82612584565b91507fffffffffffffffffffffffffffffffffffffffffffffffffffffffffffffffff820361346d5761346c612cd1565b5b600182019050919050565b600061348382612584565b915061348e83612584565b92508261349e5761349d6133d0565b5b828204905092915050565b7f45524337323155524953746f726167653a2055524920736574206f66206e6f6e60008201527f6578697374656e7420746f6b656e000000000000000000000000000000000000602082015250565b6000613505602e836124dd565b9150613510826134a9565b604082019050919050565b60006020820190508181036000830152613534816134f8565b9050919050565b60008190508160005260206000209050919050565b60006020601f8301049050919050565b600082821b905092915050565b60006008830261359d7fffffffffffffffffffffffffffffffffffffffffffffffffffffffffffffffff82613560565b6135a78683613560565b95508019841693508086168417925050509392505050565b6000819050919050565b60006135e46135df6135da84612584565b6135bf565b612584565b9050919050565b6000819050919050565b6135fe836135c9565b61361261360a826135eb565b84845461356d565b825550505050565b600090565b61362761361a565b6136328184846135f5565b505050565b5b818110156136565761364b60008261361f565b600181019050613638565b5050565b601f82111561369b5761366c8161353b565b61367584613550565b81016020851015613684578190505b61369861369085613550565b830182613637565b50505b505050565b600082821c905092915050565b60006136be600019846008026136a0565b1980831691505092915050565b60006136d783836136ad565b9150826002028217905092915050565b6136f0826124d2565b67ffffffffffffffff811115613709576137086127cf565b5b61371382546129ec565b61371e82828561365a565b600060209050601f831160018114613751576000841561373f578287015190505b61374985826136cb565b8655506137b1565b601f19841661375f8661353b565b60005b8281101561378757848901518255600182019150602085019450602081019050613762565b868310156137a457848901516137a0601f8916826136ad565b8355505b6001600288020188555050505b505050505050565b7f4f776e61626c653a2063616c6c6572206973206e6f7420746865206f776e6572600082015250565b60006137ef6020836124dd565b91506137fa826137b9565b602082019050919050565b6000602082019050818103600083015261381e816137e2565b9050919050565b7f4552433732313a20617070726f766520746f2063616c6c657200000000000000600082015250565b600061385b6019836124dd565b915061386682613825565b602082019050919050565b6000602082019050818103600083015261388a8161384e565b9050919050565b7f4552433732313a207472616e7366657220746f206e6f6e20455243373231526560008201527f63656976657220696d706c656d656e7465720000000000000000000000000000602082015250565b60006138ed6032836124dd565b91506138f882613891565b604082019050919050565b6000602082019050818103600083015261391c816138e0565b9050919050565b600061392f8285612e58565b915061393b8284612e58565b91508190509392505050565b600081519050919050565b600082825260208201905092915050565b600061396e82613947565b6139788185613952565b93506139888185602086016124ee565b61399181612518565b840191505092915050565b60006080820190506139b16000830187612619565b6139be6020830186612619565b6139cb60408301856126af565b81810360608301526139dd8184613963565b905095945050505050565b6000815190506139f781612443565b92915050565b600060208284031215613a1357613a1261240d565b5b6000613a21848285016139e8565b91505092915050565b7f4552433732313a206d696e7420746f20746865207a65726f2061646472657373600082015250565b6000613a606020836124dd565b9150613a6b82613a2a565b602082019050919050565b60006020820190508181036000830152613a8f81613a53565b9050919050565b7f4552433732313a20746f6b656e20616c7265616479206d696e74656400000000600082015250565b6000613acc601c836124dd565b9150613ad782613a96565b602082019050919050565b60006020820190508181036000830152613afb81613abf565b9050919050565b7f4e487b7100000000000000000000000000000000000000000000000000000000600052603160045260246000fdfe68747470733a2f2f676174657761792e70696e6174612e636c6f75642f697066732f516d517146395467686d47684e6a32475661366e33464b78465031345a32536d6d446b516239357852514d3847512fa2646970667358221220216d0406405bfe56f8994a54368e2671ab929e195ce65fc4f86ff5c98531403b64736f6c63430008110033",
  "linkReferences": {},
  "deployedLinkReferences": {}
}