{
  "_format": "hh-sol-artifact-1",
  "contractName": "WalletDirectory",
  "sourceName": "contracts/WalletDirectory.sol",
  "abi": [
    {
      "inputs": [],
      "stateMutability": "nonpayable",
      "type": "constructor"
    },
    {
      "inputs": [
        {
          "internalType": "address",
          "name": "",
          "type": "address"
        }
      ],
      "name": "directory",
      "outputs": [
        {
          "internalType": "string",
          "name": "Name",
          "type": "string"
        },
        {
          "internalType": "string",
          "name": "Email",
          "type": "string"
        },
        {
          "internalType": "string",
          "name": "PhoneNumber",
          "type": "string"
        }
      ],
      "stateMutability": "view",
      "type": "function"
    },
    {
      "inputs": [
        {
          "internalType": "address",
          "name": "_target",
          "type": "address"
        }
      ],
      "name": "getWalletContact",
      "outputs": [
        {
          "components": [
            {
              "internalType": "string",
              "name": "Name",
              "type": "string"
            },
            {
              "internalType": "string",
              "name": "Email",
              "type": "string"
            },
            {
              "internalType": "string",
              "name": "PhoneNumber",
              "type": "string"
            }
          ],
          "internalType": "struct WalletDirectory.Contact",
          "name": "",
          "type": "tuple"
        }
      ],
      "stateMutability": "view",
      "type": "function"
    },
    {
      "inputs": [
        {
          "components": [
            {
              "internalType": "string",
              "name": "Name",
              "type": "string"
            },
            {
              "internalType": "string",
              "name": "Email",
              "type": "string"
            },
            {
              "internalType": "string",
              "name": "PhoneNumber",
              "type": "string"
            }
          ],
          "internalType": "struct WalletDirectory.Contact",
          "name": "_contact",
          "type": "tuple"
        }
      ],
      "name": "setContact",
      "outputs": [],
      "stateMutability": "nonpayable",
      "type": "function"
    },
    {
      "inputs": [
        {
          "internalType": "string",
          "name": "_email",
          "type": "string"
        }
      ],
      "name": "setContactEmail",
      "outputs": [],
      "stateMutability": "nonpayable",
      "type": "function"
    },
    {
      "inputs": [
        {
          "internalType": "string",
          "name": "_name",
          "type": "string"
        }
      ],
      "name": "setContactName",
      "outputs": [],
      "stateMutability": "nonpayable",
      "type": "function"
    },
    {
      "inputs": [
        {
          "internalType": "string",
          "name": "_phone",
          "type": "string"
        }
      ],
      "name": "setContactPhone",
      "outputs": [],
      "stateMutability": "nonpayable",
      "type": "function"
    }
  ],
  "bytecode": "0x608060405234801561001057600080fd5b50610e93806100206000396000f3fe608060405234801561001057600080fd5b50600436106100625760003560e01c80633040ee8a14610067578063489ea3201461008357806371ed0283146100b5578063722f1049146100e5578063e24d6fea14610101578063f74f909a1461011d575b600080fd5b610081600480360381019061007c9190610801565b610139565b005b61009d600480360381019061009891906108a8565b61018b565b6040516100ac93929190610954565b60405180910390f35b6100cf60048036038101906100ca91906108a8565b61034d565b6040516100dc9190610a48565b60405180910390f35b6100ff60048036038101906100fa9190610801565b61055b565b005b61011b60048036038101906101169190610b2c565b6105ad565b005b61013760048036038101906101329190610801565b610634565b005b806000803373ffffffffffffffffffffffffffffffffffffffff1673ffffffffffffffffffffffffffffffffffffffff16815260200190815260200160002060000190816101879190610d8b565b5050565b60006020528060005260406000206000915090508060000180546101ae90610ba4565b80601f01602080910402602001604051908101604052809291908181526020018280546101da90610ba4565b80156102275780601f106101fc57610100808354040283529160200191610227565b820191906000526020600020905b81548152906001019060200180831161020a57829003601f168201915b50505050509080600101805461023c90610ba4565b80601f016020809104026020016040519081016040528092919081815260200182805461026890610ba4565b80156102b55780601f1061028a576101008083540402835291602001916102b5565b820191906000526020600020905b81548152906001019060200180831161029857829003601f168201915b5050505050908060020180546102ca90610ba4565b80601f01602080910402602001604051908101604052809291908181526020018280546102f690610ba4565b80156103435780601f1061031857610100808354040283529160200191610343565b820191906000526020600020905b81548152906001019060200180831161032657829003601f168201915b5050505050905083565b610355610686565b6000808373ffffffffffffffffffffffffffffffffffffffff1673ffffffffffffffffffffffffffffffffffffffff1681526020019081526020016000206040518060600160405290816000820180546103ae90610ba4565b80601f01602080910402602001604051908101604052809291908181526020018280546103da90610ba4565b80156104275780601f106103fc57610100808354040283529160200191610427565b820191906000526020600020905b81548152906001019060200180831161040a57829003601f168201915b5050505050815260200160018201805461044090610ba4565b80601f016020809104026020016040519081016040528092919081815260200182805461046c90610ba4565b80156104b95780601f1061048e576101008083540402835291602001916104b9565b820191906000526020600020905b81548152906001019060200180831161049c57829003601f168201915b505050505081526020016002820180546104d290610ba4565b80601f01602080910402602001604051908101604052809291908181526020018280546104fe90610ba4565b801561054b5780601f106105205761010080835404028352916020019161054b565b820191906000526020600020905b81548152906001019060200180831161052e57829003601f168201915b5050505050815250509050919050565b806000803373ffffffffffffffffffffffffffffffffffffffff1673ffffffffffffffffffffffffffffffffffffffff16815260200190815260200160002060010190816105a99190610d8b565b5050565b806000803373ffffffffffffffffffffffffffffffffffffffff1673ffffffffffffffffffffffffffffffffffffffff16815260200190815260200160002060008201518160000190816106019190610d8b565b5060208201518160010190816106179190610d8b565b50604082015181600201908161062d9190610d8b565b5090505050565b806000803373ffffffffffffffffffffffffffffffffffffffff1673ffffffffffffffffffffffffffffffffffffffff16815260200190815260200160002060020190816106829190610d8b565b5050565b60405180606001604052806060815260200160608152602001606081525090565b6000604051905090565b600080fd5b600080fd5b600080fd5b600080fd5b6000601f19601f8301169050919050565b7f4e487b7100000000000000000000000000000000000000000000000000000000600052604160045260246000fd5b61070e826106c5565b810181811067ffffffffffffffff8211171561072d5761072c6106d6565b5b80604052505050565b60006107406106a7565b905061074c8282610705565b919050565b600067ffffffffffffffff82111561076c5761076b6106d6565b5b610775826106c5565b9050602081019050919050565b82818337600083830152505050565b60006107a461079f84610751565b610736565b9050828152602081018484840111156107c0576107bf6106c0565b5b6107cb848285610782565b509392505050565b600082601f8301126107e8576107e76106bb565b5b81356107f8848260208601610791565b91505092915050565b600060208284031215610817576108166106b1565b5b600082013567ffffffffffffffff811115610835576108346106b6565b5b610841848285016107d3565b91505092915050565b600073ffffffffffffffffffffffffffffffffffffffff82169050919050565b60006108758261084a565b9050919050565b6108858161086a565b811461089057600080fd5b50565b6000813590506108a28161087c565b92915050565b6000602082840312156108be576108bd6106b1565b5b60006108cc84828501610893565b91505092915050565b600081519050919050565b600082825260208201905092915050565b60005b8381101561090f5780820151818401526020810190506108f4565b60008484015250505050565b6000610926826108d5565b61093081856108e0565b93506109408185602086016108f1565b610949816106c5565b840191505092915050565b6000606082019050818103600083015261096e818661091b565b90508181036020830152610982818561091b565b90508181036040830152610996818461091b565b9050949350505050565b600082825260208201905092915050565b60006109bc826108d5565b6109c681856109a0565b93506109d68185602086016108f1565b6109df816106c5565b840191505092915050565b60006060830160008301518482036000860152610a0782826109b1565b91505060208301518482036020860152610a2182826109b1565b91505060408301518482036040860152610a3b82826109b1565b9150508091505092915050565b60006020820190508181036000830152610a6281846109ea565b905092915050565b600080fd5b600080fd5b600060608284031215610a8a57610a89610a6a565b5b610a946060610736565b9050600082013567ffffffffffffffff811115610ab457610ab3610a6f565b5b610ac0848285016107d3565b600083015250602082013567ffffffffffffffff811115610ae457610ae3610a6f565b5b610af0848285016107d3565b602083015250604082013567ffffffffffffffff811115610b1457610b13610a6f565b5b610b20848285016107d3565b60408301525092915050565b600060208284031215610b4257610b416106b1565b5b600082013567ffffffffffffffff811115610b6057610b5f6106b6565b5b610b6c84828501610a74565b91505092915050565b7f4e487b7100000000000000000000000000000000000000000000000000000000600052602260045260246000fd5b60006002820490506001821680610bbc57607f821691505b602082108103610bcf57610bce610b75565b5b50919050565b60008190508160005260206000209050919050565b60006020601f8301049050919050565b600082821b905092915050565b600060088302610c377fffffffffffffffffffffffffffffffffffffffffffffffffffffffffffffffff82610bfa565b610c418683610bfa565b95508019841693508086168417925050509392505050565b6000819050919050565b6000819050919050565b6000610c88610c83610c7e84610c59565b610c63565b610c59565b9050919050565b6000819050919050565b610ca283610c6d565b610cb6610cae82610c8f565b848454610c07565b825550505050565b600090565b610ccb610cbe565b610cd6818484610c99565b505050565b5b81811015610cfa57610cef600082610cc3565b600181019050610cdc565b5050565b601f821115610d3f57610d1081610bd5565b610d1984610bea565b81016020851015610d28578190505b610d3c610d3485610bea565b830182610cdb565b50505b505050565b600082821c905092915050565b6000610d6260001984600802610d44565b1980831691505092915050565b6000610d7b8383610d51565b9150826002028217905092915050565b610d94826108d5565b67ffffffffffffffff811115610dad57610dac6106d6565b5b610db78254610ba4565b610dc2828285610cfe565b600060209050601f831160018114610df55760008415610de3578287015190505b610ded8582610d6f565b865550610e55565b601f198416610e0386610bd5565b60005b82811015610e2b57848901518255600182019150602085019450602081019050610e06565b86831015610e485784890151610e44601f891682610d51565b8355505b6001600288020188555050505b50505050505056fea26469706673582212209f2b08d2d25e875d436573d5a1da6ee27c185ff1217fecf1f41a689bc5cf93eb64736f6c63430008110033",
  "linkReferences": {},
  "deployedLinkReferences": {}
}