{
  "_format": "hh-sol-artifact-1",
  "contractName": "WalletDirectory",
  "sourceName": "contracts/WalletDirectory.sol",
  "abi": [
    {
      "inputs": [],
      "stateMutability": "nonpayable",
      "type": "constructor"
    },
    {
      "anonymous": false,
      "inputs": [
        {
          "indexed": true,
          "internalType": "address",
          "name": "previousOwner",
          "type": "address"
        },
        {
          "indexed": true,
          "internalType": "address",
          "name": "newOwner",
          "type": "address"
        }
      ],
      "name": "OwnershipTransferred",
      "type": "event"
    },
    {
      "inputs": [
        {
          "internalType": "uint256",
          "name": "_amount",
          "type": "uint256"
        }
      ],
      "name": "acceptTransfer",
      "outputs": [
        {
          "internalType": "bool",
          "name": "",
          "type": "bool"
        }
      ],
      "stateMutability": "nonpayable",
      "type": "function"
    },
    {
      "inputs": [
        {
          "internalType": "uint256",
          "name": "_amount",
          "type": "uint256"
        }
      ],
      "name": "approveTokens",
      "outputs": [
        {
          "internalType": "bool",
          "name": "",
          "type": "bool"
        }
      ],
      "stateMutability": "nonpayable",
      "type": "function"
    },
    {
      "inputs": [
        {
          "internalType": "address",
          "name": "",
          "type": "address"
        }
      ],
      "name": "directory",
      "outputs": [
        {
          "internalType": "string",
          "name": "Name",
          "type": "string"
        },
        {
          "internalType": "string",
          "name": "Email",
          "type": "string"
        },
        {
          "internalType": "string",
          "name": "PhoneNumber",
          "type": "string"
        },
        {
          "internalType": "uint256",
          "name": "StackedTokens",
          "type": "uint256"
        }
      ],
      "stateMutability": "view",
      "type": "function"
    },
    {
      "inputs": [],
      "name": "getAllowance",
      "outputs": [
        {
          "internalType": "uint256",
          "name": "",
          "type": "uint256"
        }
      ],
      "stateMutability": "view",
      "type": "function"
    },
    {
      "inputs": [],
      "name": "getContractTokenBalance",
      "outputs": [
        {
          "internalType": "uint256",
          "name": "",
          "type": "uint256"
        }
      ],
      "stateMutability": "view",
      "type": "function"
    },
    {
      "inputs": [],
      "name": "getUserTokenBalance",
      "outputs": [
        {
          "internalType": "uint256",
          "name": "",
          "type": "uint256"
        }
      ],
      "stateMutability": "view",
      "type": "function"
    },
    {
      "inputs": [
        {
          "internalType": "address",
          "name": "_target",
          "type": "address"
        }
      ],
      "name": "getWalletContact",
      "outputs": [
        {
          "components": [
            {
              "internalType": "string",
              "name": "Name",
              "type": "string"
            },
            {
              "internalType": "string",
              "name": "Email",
              "type": "string"
            },
            {
              "internalType": "string",
              "name": "PhoneNumber",
              "type": "string"
            },
            {
              "internalType": "uint256",
              "name": "StackedTokens",
              "type": "uint256"
            }
          ],
          "internalType": "struct WalletDirectory.Contact",
          "name": "",
          "type": "tuple"
        }
      ],
      "stateMutability": "view",
      "type": "function"
    },
    {
      "inputs": [],
      "name": "owner",
      "outputs": [
        {
          "internalType": "address",
          "name": "",
          "type": "address"
        }
      ],
      "stateMutability": "view",
      "type": "function"
    },
    {
      "inputs": [],
      "name": "renounceOwnership",
      "outputs": [],
      "stateMutability": "nonpayable",
      "type": "function"
    },
    {
      "inputs": [
        {
          "components": [
            {
              "internalType": "string",
              "name": "Name",
              "type": "string"
            },
            {
              "internalType": "string",
              "name": "Email",
              "type": "string"
            },
            {
              "internalType": "string",
              "name": "PhoneNumber",
              "type": "string"
            },
            {
              "internalType": "uint256",
              "name": "StackedTokens",
              "type": "uint256"
            }
          ],
          "internalType": "struct WalletDirectory.Contact",
          "name": "_contact",
          "type": "tuple"
        }
      ],
      "name": "setContact",
      "outputs": [],
      "stateMutability": "nonpayable",
      "type": "function"
    },
    {
      "inputs": [
        {
          "internalType": "string",
          "name": "_email",
          "type": "string"
        }
      ],
      "name": "setContactEmail",
      "outputs": [],
      "stateMutability": "nonpayable",
      "type": "function"
    },
    {
      "inputs": [
        {
          "internalType": "string",
          "name": "_name",
          "type": "string"
        }
      ],
      "name": "setContactName",
      "outputs": [],
      "stateMutability": "nonpayable",
      "type": "function"
    },
    {
      "inputs": [
        {
          "internalType": "string",
          "name": "_phone",
          "type": "string"
        }
      ],
      "name": "setContactPhone",
      "outputs": [],
      "stateMutability": "nonpayable",
      "type": "function"
    },
    {
      "inputs": [
        {
          "internalType": "address",
          "name": "newOwner",
          "type": "address"
        }
      ],
      "name": "transferOwnership",
      "outputs": [],
      "stateMutability": "nonpayable",
      "type": "function"
    }
  ],
  "bytecode": "0x60806040527387a725b3df717c3c0a36ebc5f34bfa3c618af0fd600260006101000a81548173ffffffffffffffffffffffffffffffffffffffff021916908373ffffffffffffffffffffffffffffffffffffffff16021790555034801561006557600080fd5b5061008261007761008760201b60201c565b61008f60201b60201c565b610153565b600033905090565b60008060009054906101000a900473ffffffffffffffffffffffffffffffffffffffff169050816000806101000a81548173ffffffffffffffffffffffffffffffffffffffff021916908373ffffffffffffffffffffffffffffffffffffffff1602179055508173ffffffffffffffffffffffffffffffffffffffff168173ffffffffffffffffffffffffffffffffffffffff167f8be0079c531659141344cd1fd0a4f28419497f9722a3daafe3b4186f6b6457e060405160405180910390a35050565b611adf806101626000396000f3fe608060405234801561001057600080fd5b50600436106100ea5760003560e01c806371ed02831161008c578063973e9b8b11610066578063973e9b8b1461024c578063a3405f391461026a578063f2fde38b14610288578063f74f909a146102a4576100ea565b806371ed0283146101e2578063722f1049146102125780638da5cb5b1461022e576100ea565b8063317d9453116100c8578063317d94531461016b57806337606c9514610189578063489ea320146101a5578063715018a6146101d8576100ea565b8063220646ce146100ef578063274fae7c1461011f5780633040ee8a1461014f575b600080fd5b61010960048036038101906101049190610e9f565b6102c0565b6040516101169190610ee7565b60405180910390f35b61013960048036038101906101349190610e9f565b61036c565b6040516101469190610ee7565b60405180910390f35b61016960048036038101906101649190611048565b6104c4565b005b610173610517565b60405161018091906110a0565b60405180910390f35b6101a3600480360381019061019e9190611191565b6105c2565b005b6101bf60048036038101906101ba9190611238565b610654565b6040516101cf94939291906112e4565b60405180910390f35b6101e061081c565b005b6101fc60048036038101906101f79190611238565b610830565b6040516102099190611408565b60405180910390f35b61022c60048036038101906102279190611048565b610a49565b005b610236610a9c565b6040516102439190611439565b60405180910390f35b610254610ac5565b60405161026191906110a0565b60405180910390f35b610272610b6a565b60405161027f91906110a0565b60405180910390f35b6102a2600480360381019061029d9190611238565b610c0d565b005b6102be60048036038101906102b99190611048565b610c90565b005b6000600260009054906101000a900473ffffffffffffffffffffffffffffffffffffffff1673ffffffffffffffffffffffffffffffffffffffff1663095ea7b330846040518363ffffffff1660e01b815260040161031f929190611454565b6020604051808303816000875af115801561033e573d6000803e3d6000fd5b505050506040513d601f19601f8201168201806040525081019061036291906114a9565b5060019050919050565b6000600260009054906101000a900473ffffffffffffffffffffffffffffffffffffffff1673ffffffffffffffffffffffffffffffffffffffff166323b872dd3330856040518463ffffffff1660e01b81526004016103cd939291906114d6565b6020604051808303816000875af11580156103ec573d6000803e3d6000fd5b505050506040513d601f19601f8201168201806040525081019061041091906114a9565b61044f576040517f08c379a00000000000000000000000000000000000000000000000000000000081526004016104469061157f565b60405180910390fd5b670de0b6b3a76400008261046391906115fd565b600160003373ffffffffffffffffffffffffffffffffffffffff1673ffffffffffffffffffffffffffffffffffffffff16815260200190815260200160002060030160008282546104b4919061162e565b9250508190555060019050919050565b80600160003373ffffffffffffffffffffffffffffffffffffffff1673ffffffffffffffffffffffffffffffffffffffff1681526020019081526020016000206000019081610513919061186e565b5050565b6000610521610ce3565b600260009054906101000a900473ffffffffffffffffffffffffffffffffffffffff1673ffffffffffffffffffffffffffffffffffffffff166370a08231306040518263ffffffff1660e01b815260040161057c9190611439565b602060405180830381865afa158015610599573d6000803e3d6000fd5b505050506040513d601f19601f820116820180604052508101906105bd9190611955565b905090565b80600160003373ffffffffffffffffffffffffffffffffffffffff1673ffffffffffffffffffffffffffffffffffffffff1681526020019081526020016000206000820151816000019081610617919061186e565b50602082015181600101908161062d919061186e565b506040820151816002019081610643919061186e565b506060820151816003015590505050565b600160205280600052604060002060009150905080600001805461067790611691565b80601f01602080910402602001604051908101604052809291908181526020018280546106a390611691565b80156106f05780601f106106c5576101008083540402835291602001916106f0565b820191906000526020600020905b8154815290600101906020018083116106d357829003601f168201915b50505050509080600101805461070590611691565b80601f016020809104026020016040519081016040528092919081815260200182805461073190611691565b801561077e5780601f106107535761010080835404028352916020019161077e565b820191906000526020600020905b81548152906001019060200180831161076157829003601f168201915b50505050509080600201805461079390611691565b80601f01602080910402602001604051908101604052809291908181526020018280546107bf90611691565b801561080c5780601f106107e15761010080835404028352916020019161080c565b820191906000526020600020905b8154815290600101906020018083116107ef57829003601f168201915b5050505050908060030154905084565b610824610ce3565b61082e6000610d61565b565b610838610e2d565b600160008373ffffffffffffffffffffffffffffffffffffffff1673ffffffffffffffffffffffffffffffffffffffff16815260200190815260200160002060405180608001604052908160008201805461089290611691565b80601f01602080910402602001604051908101604052809291908181526020018280546108be90611691565b801561090b5780601f106108e05761010080835404028352916020019161090b565b820191906000526020600020905b8154815290600101906020018083116108ee57829003601f168201915b5050505050815260200160018201805461092490611691565b80601f016020809104026020016040519081016040528092919081815260200182805461095090611691565b801561099d5780601f106109725761010080835404028352916020019161099d565b820191906000526020600020905b81548152906001019060200180831161098057829003601f168201915b505050505081526020016002820180546109b690611691565b80601f01602080910402602001604051908101604052809291908181526020018280546109e290611691565b8015610a2f5780601f10610a0457610100808354040283529160200191610a2f565b820191906000526020600020905b815481529060010190602001808311610a1257829003601f168201915b505050505081526020016003820154815250509050919050565b80600160003373ffffffffffffffffffffffffffffffffffffffff1673ffffffffffffffffffffffffffffffffffffffff1681526020019081526020016000206001019081610a98919061186e565b5050565b60008060009054906101000a900473ffffffffffffffffffffffffffffffffffffffff16905090565b6000600260009054906101000a900473ffffffffffffffffffffffffffffffffffffffff1673ffffffffffffffffffffffffffffffffffffffff1663dd62ed3e33306040518363ffffffff1660e01b8152600401610b24929190611982565b602060405180830381865afa158015610b41573d6000803e3d6000fd5b505050506040513d601f19601f82011682018060405250810190610b659190611955565b905090565b6000600260009054906101000a900473ffffffffffffffffffffffffffffffffffffffff1673ffffffffffffffffffffffffffffffffffffffff166370a08231336040518263ffffffff1660e01b8152600401610bc79190611439565b602060405180830381865afa158015610be4573d6000803e3d6000fd5b505050506040513d601f19601f82011682018060405250810190610c089190611955565b905090565b610c15610ce3565b600073ffffffffffffffffffffffffffffffffffffffff168173ffffffffffffffffffffffffffffffffffffffff1603610c84576040517f08c379a0000000000000000000000000000000000000000000000000000000008152600401610c7b90611a1d565b60405180910390fd5b610c8d81610d61565b50565b80600160003373ffffffffffffffffffffffffffffffffffffffff1673ffffffffffffffffffffffffffffffffffffffff1681526020019081526020016000206002019081610cdf919061186e565b5050565b610ceb610e25565b73ffffffffffffffffffffffffffffffffffffffff16610d09610a9c565b73ffffffffffffffffffffffffffffffffffffffff1614610d5f576040517f08c379a0000000000000000000000000000000000000000000000000000000008152600401610d5690611a89565b60405180910390fd5b565b60008060009054906101000a900473ffffffffffffffffffffffffffffffffffffffff169050816000806101000a81548173ffffffffffffffffffffffffffffffffffffffff021916908373ffffffffffffffffffffffffffffffffffffffff1602179055508173ffffffffffffffffffffffffffffffffffffffff168173ffffffffffffffffffffffffffffffffffffffff167f8be0079c531659141344cd1fd0a4f28419497f9722a3daafe3b4186f6b6457e060405160405180910390a35050565b600033905090565b6040518060800160405280606081526020016060815260200160608152602001600081525090565b6000604051905090565b600080fd5b600080fd5b6000819050919050565b610e7c81610e69565b8114610e8757600080fd5b50565b600081359050610e9981610e73565b92915050565b600060208284031215610eb557610eb4610e5f565b5b6000610ec384828501610e8a565b91505092915050565b60008115159050919050565b610ee181610ecc565b82525050565b6000602082019050610efc6000830184610ed8565b92915050565b600080fd5b600080fd5b6000601f19601f8301169050919050565b7f4e487b7100000000000000000000000000000000000000000000000000000000600052604160045260246000fd5b610f5582610f0c565b810181811067ffffffffffffffff82111715610f7457610f73610f1d565b5b80604052505050565b6000610f87610e55565b9050610f938282610f4c565b919050565b600067ffffffffffffffff821115610fb357610fb2610f1d565b5b610fbc82610f0c565b9050602081019050919050565b82818337600083830152505050565b6000610feb610fe684610f98565b610f7d565b90508281526020810184848401111561100757611006610f07565b5b611012848285610fc9565b509392505050565b600082601f83011261102f5761102e610f02565b5b813561103f848260208601610fd8565b91505092915050565b60006020828403121561105e5761105d610e5f565b5b600082013567ffffffffffffffff81111561107c5761107b610e64565b5b6110888482850161101a565b91505092915050565b61109a81610e69565b82525050565b60006020820190506110b56000830184611091565b92915050565b600080fd5b600080fd5b6000608082840312156110db576110da6110bb565b5b6110e56080610f7d565b9050600082013567ffffffffffffffff811115611105576111046110c0565b5b6111118482850161101a565b600083015250602082013567ffffffffffffffff811115611135576111346110c0565b5b6111418482850161101a565b602083015250604082013567ffffffffffffffff811115611165576111646110c0565b5b6111718482850161101a565b604083015250606061118584828501610e8a565b60608301525092915050565b6000602082840312156111a7576111a6610e5f565b5b600082013567ffffffffffffffff8111156111c5576111c4610e64565b5b6111d1848285016110c5565b91505092915050565b600073ffffffffffffffffffffffffffffffffffffffff82169050919050565b6000611205826111da565b9050919050565b611215816111fa565b811461122057600080fd5b50565b6000813590506112328161120c565b92915050565b60006020828403121561124e5761124d610e5f565b5b600061125c84828501611223565b91505092915050565b600081519050919050565b600082825260208201905092915050565b60005b8381101561129f578082015181840152602081019050611284565b60008484015250505050565b60006112b682611265565b6112c08185611270565b93506112d0818560208601611281565b6112d981610f0c565b840191505092915050565b600060808201905081810360008301526112fe81876112ab565b9050818103602083015261131281866112ab565b9050818103604083015261132681856112ab565b90506113356060830184611091565b95945050505050565b600082825260208201905092915050565b600061135a82611265565b611364818561133e565b9350611374818560208601611281565b61137d81610f0c565b840191505092915050565b61139181610e69565b82525050565b600060808301600083015184820360008601526113b4828261134f565b915050602083015184820360208601526113ce828261134f565b915050604083015184820360408601526113e8828261134f565b91505060608301516113fd6060860182611388565b508091505092915050565b600060208201905081810360008301526114228184611397565b905092915050565b611433816111fa565b82525050565b600060208201905061144e600083018461142a565b92915050565b6000604082019050611469600083018561142a565b6114766020830184611091565b9392505050565b61148681610ecc565b811461149157600080fd5b50565b6000815190506114a38161147d565b92915050565b6000602082840312156114bf576114be610e5f565b5b60006114cd84828501611494565b91505092915050565b60006060820190506114eb600083018661142a565b6114f8602083018561142a565b6115056040830184611091565b949350505050565b7f506c6561736520617070726f766520746f6b656e73206265666f72652074726160008201527f6e7366657272696e670000000000000000000000000000000000000000000000602082015250565b6000611569602983611270565b91506115748261150d565b604082019050919050565b600060208201905081810360008301526115988161155c565b9050919050565b7f4e487b7100000000000000000000000000000000000000000000000000000000600052601260045260246000fd5b7f4e487b7100000000000000000000000000000000000000000000000000000000600052601160045260246000fd5b600061160882610e69565b915061161383610e69565b9250826116235761162261159f565b5b828204905092915050565b600061163982610e69565b915061164483610e69565b925082820190508082111561165c5761165b6115ce565b5b92915050565b7f4e487b7100000000000000000000000000000000000000000000000000000000600052602260045260246000fd5b600060028204905060018216806116a957607f821691505b6020821081036116bc576116bb611662565b5b50919050565b60008190508160005260206000209050919050565b60006020601f8301049050919050565b600082821b905092915050565b6000600883026117247fffffffffffffffffffffffffffffffffffffffffffffffffffffffffffffffff826116e7565b61172e86836116e7565b95508019841693508086168417925050509392505050565b6000819050919050565b600061176b61176661176184610e69565b611746565b610e69565b9050919050565b6000819050919050565b61178583611750565b61179961179182611772565b8484546116f4565b825550505050565b600090565b6117ae6117a1565b6117b981848461177c565b505050565b5b818110156117dd576117d26000826117a6565b6001810190506117bf565b5050565b601f821115611822576117f3816116c2565b6117fc846116d7565b8101602085101561180b578190505b61181f611817856116d7565b8301826117be565b50505b505050565b600082821c905092915050565b600061184560001984600802611827565b1980831691505092915050565b600061185e8383611834565b9150826002028217905092915050565b61187782611265565b67ffffffffffffffff8111156118905761188f610f1d565b5b61189a8254611691565b6118a58282856117e1565b600060209050601f8311600181146118d857600084156118c6578287015190505b6118d08582611852565b865550611938565b601f1984166118e6866116c2565b60005b8281101561190e578489015182556001820191506020850194506020810190506118e9565b8683101561192b5784890151611927601f891682611834565b8355505b6001600288020188555050505b505050505050565b60008151905061194f81610e73565b92915050565b60006020828403121561196b5761196a610e5f565b5b600061197984828501611940565b91505092915050565b6000604082019050611997600083018561142a565b6119a4602083018461142a565b9392505050565b7f4f776e61626c653a206e6577206f776e657220697320746865207a65726f206160008201527f6464726573730000000000000000000000000000000000000000000000000000602082015250565b6000611a07602683611270565b9150611a12826119ab565b604082019050919050565b60006020820190508181036000830152611a36816119fa565b9050919050565b7f4f776e61626c653a2063616c6c6572206973206e6f7420746865206f776e6572600082015250565b6000611a73602083611270565b9150611a7e82611a3d565b602082019050919050565b60006020820190508181036000830152611aa281611a66565b905091905056fea2646970667358221220eadb981b73e00531876ac3ced153e8587387bd20b7af45de8b97549c574cac9d64736f6c63430008110033",
  "linkReferences": {},
  "deployedLinkReferences": {}
}