{
  "_format": "hh-sol-artifact-1",
  "contractName": "WalletDirectory",
  "sourceName": "contracts/WalletDirectory.sol",
  "abi": [
    {
      "inputs": [],
      "stateMutability": "nonpayable",
      "type": "constructor"
    },
    {
      "anonymous": false,
      "inputs": [
        {
          "indexed": true,
          "internalType": "address",
          "name": "previousOwner",
          "type": "address"
        },
        {
          "indexed": true,
          "internalType": "address",
          "name": "newOwner",
          "type": "address"
        }
      ],
      "name": "OwnershipTransferred",
      "type": "event"
    },
    {
      "inputs": [
        {
          "internalType": "uint256",
          "name": "_amount",
          "type": "uint256"
        }
      ],
      "name": "acceptTransfer",
      "outputs": [
        {
          "internalType": "bool",
          "name": "",
          "type": "bool"
        }
      ],
      "stateMutability": "nonpayable",
      "type": "function"
    },
    {
      "inputs": [
        {
          "internalType": "uint256",
          "name": "_amount",
          "type": "uint256"
        }
      ],
      "name": "approveTokens",
      "outputs": [
        {
          "internalType": "bool",
          "name": "",
          "type": "bool"
        }
      ],
      "stateMutability": "nonpayable",
      "type": "function"
    },
    {
      "inputs": [
        {
          "internalType": "address",
          "name": "",
          "type": "address"
        }
      ],
      "name": "directory",
      "outputs": [
        {
          "internalType": "string",
          "name": "Name",
          "type": "string"
        },
        {
          "internalType": "string",
          "name": "Email",
          "type": "string"
        },
        {
          "internalType": "string",
          "name": "PhoneNumber",
          "type": "string"
        },
        {
          "internalType": "uint256",
          "name": "StackedTokens",
          "type": "uint256"
        }
      ],
      "stateMutability": "view",
      "type": "function"
    },
    {
      "inputs": [],
      "name": "getAllowance",
      "outputs": [
        {
          "internalType": "uint256",
          "name": "",
          "type": "uint256"
        }
      ],
      "stateMutability": "view",
      "type": "function"
    },
    {
      "inputs": [],
      "name": "getContractTokenBalance",
      "outputs": [
        {
          "internalType": "uint256",
          "name": "",
          "type": "uint256"
        }
      ],
      "stateMutability": "view",
      "type": "function"
    },
    {
      "inputs": [],
      "name": "getUserTokenBalance",
      "outputs": [
        {
          "internalType": "uint256",
          "name": "",
          "type": "uint256"
        }
      ],
      "stateMutability": "view",
      "type": "function"
    },
    {
      "inputs": [
        {
          "internalType": "address",
          "name": "_target",
          "type": "address"
        }
      ],
      "name": "getWalletContact",
      "outputs": [
        {
          "components": [
            {
              "internalType": "string",
              "name": "Name",
              "type": "string"
            },
            {
              "internalType": "string",
              "name": "Email",
              "type": "string"
            },
            {
              "internalType": "string",
              "name": "PhoneNumber",
              "type": "string"
            },
            {
              "internalType": "uint256",
              "name": "StackedTokens",
              "type": "uint256"
            }
          ],
          "internalType": "struct WalletDirectory.Contact",
          "name": "",
          "type": "tuple"
        }
      ],
      "stateMutability": "view",
      "type": "function"
    },
    {
      "inputs": [],
      "name": "owner",
      "outputs": [
        {
          "internalType": "address",
          "name": "",
          "type": "address"
        }
      ],
      "stateMutability": "view",
      "type": "function"
    },
    {
      "inputs": [],
      "name": "renounceOwnership",
      "outputs": [],
      "stateMutability": "nonpayable",
      "type": "function"
    },
    {
      "inputs": [
        {
          "components": [
            {
              "internalType": "string",
              "name": "Name",
              "type": "string"
            },
            {
              "internalType": "string",
              "name": "Email",
              "type": "string"
            },
            {
              "internalType": "string",
              "name": "PhoneNumber",
              "type": "string"
            },
            {
              "internalType": "uint256",
              "name": "StackedTokens",
              "type": "uint256"
            }
          ],
          "internalType": "struct WalletDirectory.Contact",
          "name": "_contact",
          "type": "tuple"
        }
      ],
      "name": "setContact",
      "outputs": [],
      "stateMutability": "nonpayable",
      "type": "function"
    },
    {
      "inputs": [
        {
          "internalType": "string",
          "name": "_email",
          "type": "string"
        }
      ],
      "name": "setContactEmail",
      "outputs": [],
      "stateMutability": "nonpayable",
      "type": "function"
    },
    {
      "inputs": [
        {
          "internalType": "string",
          "name": "_name",
          "type": "string"
        }
      ],
      "name": "setContactName",
      "outputs": [],
      "stateMutability": "nonpayable",
      "type": "function"
    },
    {
      "inputs": [
        {
          "internalType": "string",
          "name": "_phone",
          "type": "string"
        }
      ],
      "name": "setContactPhone",
      "outputs": [],
      "stateMutability": "nonpayable",
      "type": "function"
    },
    {
      "inputs": [
        {
          "internalType": "address",
          "name": "newOwner",
          "type": "address"
        }
      ],
      "name": "transferOwnership",
      "outputs": [],
      "stateMutability": "nonpayable",
      "type": "function"
    }
  ],
  "bytecode": "0x60806040527387a725b3df717c3c0a36ebc5f34bfa3c618af0fd600260006101000a81548173ffffffffffffffffffffffffffffffffffffffff021916908373ffffffffffffffffffffffffffffffffffffffff16021790555034801561006557600080fd5b5061008261007761008760201b60201c565b61008f60201b60201c565b610153565b600033905090565b60008060009054906101000a900473ffffffffffffffffffffffffffffffffffffffff169050816000806101000a81548173ffffffffffffffffffffffffffffffffffffffff021916908373ffffffffffffffffffffffffffffffffffffffff1602179055508173ffffffffffffffffffffffffffffffffffffffff168173ffffffffffffffffffffffffffffffffffffffff167f8be0079c531659141344cd1fd0a4f28419497f9722a3daafe3b4186f6b6457e060405160405180910390a35050565b611a6c806101626000396000f3fe608060405234801561001057600080fd5b50600436106100ea5760003560e01c806371ed02831161008c578063973e9b8b11610066578063973e9b8b1461024c578063a3405f391461026a578063f2fde38b14610288578063f74f909a146102a4576100ea565b806371ed0283146101e2578063722f1049146102125780638da5cb5b1461022e576100ea565b8063317d9453116100c8578063317d94531461016b57806337606c9514610189578063489ea320146101a5578063715018a6146101d8576100ea565b8063220646ce146100ef578063274fae7c1461011f5780633040ee8a1461014f575b600080fd5b61010960048036038101906101049190610e8c565b6102c0565b6040516101169190610ed4565b60405180910390f35b61013960048036038101906101349190610e8c565b61036c565b6040516101469190610ed4565b60405180910390f35b61016960048036038101906101649190611035565b6104b1565b005b610173610504565b604051610180919061108d565b60405180910390f35b6101a3600480360381019061019e919061117e565b6105af565b005b6101bf60048036038101906101ba9190611225565b610641565b6040516101cf94939291906112d1565b60405180910390f35b6101e0610809565b005b6101fc60048036038101906101f79190611225565b61081d565b60405161020991906113f5565b60405180910390f35b61022c60048036038101906102279190611035565b610a36565b005b610236610a89565b6040516102439190611426565b60405180910390f35b610254610ab2565b604051610261919061108d565b60405180910390f35b610272610b57565b60405161027f919061108d565b60405180910390f35b6102a2600480360381019061029d9190611225565b610bfa565b005b6102be60048036038101906102b99190611035565b610c7d565b005b6000600260009054906101000a900473ffffffffffffffffffffffffffffffffffffffff1673ffffffffffffffffffffffffffffffffffffffff1663095ea7b330846040518363ffffffff1660e01b815260040161031f929190611441565b6020604051808303816000875af115801561033e573d6000803e3d6000fd5b505050506040513d601f19601f820116820180604052508101906103629190611496565b5060019050919050565b6000600260009054906101000a900473ffffffffffffffffffffffffffffffffffffffff1673ffffffffffffffffffffffffffffffffffffffff166323b872dd3330856040518463ffffffff1660e01b81526004016103cd939291906114c3565b6020604051808303816000875af11580156103ec573d6000803e3d6000fd5b505050506040513d601f19601f820116820180604052508101906104109190611496565b61044f576040517f08c379a00000000000000000000000000000000000000000000000000000000081526004016104469061156c565b60405180910390fd5b81600160003373ffffffffffffffffffffffffffffffffffffffff1673ffffffffffffffffffffffffffffffffffffffff16815260200190815260200160002060030160008282546104a191906115bb565b9250508190555060019050919050565b80600160003373ffffffffffffffffffffffffffffffffffffffff1673ffffffffffffffffffffffffffffffffffffffff168152602001908152602001600020600001908161050091906117fb565b5050565b600061050e610cd0565b600260009054906101000a900473ffffffffffffffffffffffffffffffffffffffff1673ffffffffffffffffffffffffffffffffffffffff166370a08231306040518263ffffffff1660e01b81526004016105699190611426565b602060405180830381865afa158015610586573d6000803e3d6000fd5b505050506040513d601f19601f820116820180604052508101906105aa91906118e2565b905090565b80600160003373ffffffffffffffffffffffffffffffffffffffff1673ffffffffffffffffffffffffffffffffffffffff168152602001908152602001600020600082015181600001908161060491906117fb565b50602082015181600101908161061a91906117fb565b50604082015181600201908161063091906117fb565b506060820151816003015590505050565b60016020528060005260406000206000915090508060000180546106649061161e565b80601f01602080910402602001604051908101604052809291908181526020018280546106909061161e565b80156106dd5780601f106106b2576101008083540402835291602001916106dd565b820191906000526020600020905b8154815290600101906020018083116106c057829003601f168201915b5050505050908060010180546106f29061161e565b80601f016020809104026020016040519081016040528092919081815260200182805461071e9061161e565b801561076b5780601f106107405761010080835404028352916020019161076b565b820191906000526020600020905b81548152906001019060200180831161074e57829003601f168201915b5050505050908060020180546107809061161e565b80601f01602080910402602001604051908101604052809291908181526020018280546107ac9061161e565b80156107f95780601f106107ce576101008083540402835291602001916107f9565b820191906000526020600020905b8154815290600101906020018083116107dc57829003601f168201915b5050505050908060030154905084565b610811610cd0565b61081b6000610d4e565b565b610825610e1a565b600160008373ffffffffffffffffffffffffffffffffffffffff1673ffffffffffffffffffffffffffffffffffffffff16815260200190815260200160002060405180608001604052908160008201805461087f9061161e565b80601f01602080910402602001604051908101604052809291908181526020018280546108ab9061161e565b80156108f85780601f106108cd576101008083540402835291602001916108f8565b820191906000526020600020905b8154815290600101906020018083116108db57829003601f168201915b505050505081526020016001820180546109119061161e565b80601f016020809104026020016040519081016040528092919081815260200182805461093d9061161e565b801561098a5780601f1061095f5761010080835404028352916020019161098a565b820191906000526020600020905b81548152906001019060200180831161096d57829003601f168201915b505050505081526020016002820180546109a39061161e565b80601f01602080910402602001604051908101604052809291908181526020018280546109cf9061161e565b8015610a1c5780601f106109f157610100808354040283529160200191610a1c565b820191906000526020600020905b8154815290600101906020018083116109ff57829003601f168201915b505050505081526020016003820154815250509050919050565b80600160003373ffffffffffffffffffffffffffffffffffffffff1673ffffffffffffffffffffffffffffffffffffffff1681526020019081526020016000206001019081610a8591906117fb565b5050565b60008060009054906101000a900473ffffffffffffffffffffffffffffffffffffffff16905090565b6000600260009054906101000a900473ffffffffffffffffffffffffffffffffffffffff1673ffffffffffffffffffffffffffffffffffffffff1663dd62ed3e33306040518363ffffffff1660e01b8152600401610b1192919061190f565b602060405180830381865afa158015610b2e573d6000803e3d6000fd5b505050506040513d601f19601f82011682018060405250810190610b5291906118e2565b905090565b6000600260009054906101000a900473ffffffffffffffffffffffffffffffffffffffff1673ffffffffffffffffffffffffffffffffffffffff166370a08231336040518263ffffffff1660e01b8152600401610bb49190611426565b602060405180830381865afa158015610bd1573d6000803e3d6000fd5b505050506040513d601f19601f82011682018060405250810190610bf591906118e2565b905090565b610c02610cd0565b600073ffffffffffffffffffffffffffffffffffffffff168173ffffffffffffffffffffffffffffffffffffffff1603610c71576040517f08c379a0000000000000000000000000000000000000000000000000000000008152600401610c68906119aa565b60405180910390fd5b610c7a81610d4e565b50565b80600160003373ffffffffffffffffffffffffffffffffffffffff1673ffffffffffffffffffffffffffffffffffffffff1681526020019081526020016000206002019081610ccc91906117fb565b5050565b610cd8610e12565b73ffffffffffffffffffffffffffffffffffffffff16610cf6610a89565b73ffffffffffffffffffffffffffffffffffffffff1614610d4c576040517f08c379a0000000000000000000000000000000000000000000000000000000008152600401610d4390611a16565b60405180910390fd5b565b60008060009054906101000a900473ffffffffffffffffffffffffffffffffffffffff169050816000806101000a81548173ffffffffffffffffffffffffffffffffffffffff021916908373ffffffffffffffffffffffffffffffffffffffff1602179055508173ffffffffffffffffffffffffffffffffffffffff168173ffffffffffffffffffffffffffffffffffffffff167f8be0079c531659141344cd1fd0a4f28419497f9722a3daafe3b4186f6b6457e060405160405180910390a35050565b600033905090565b6040518060800160405280606081526020016060815260200160608152602001600081525090565b6000604051905090565b600080fd5b600080fd5b6000819050919050565b610e6981610e56565b8114610e7457600080fd5b50565b600081359050610e8681610e60565b92915050565b600060208284031215610ea257610ea1610e4c565b5b6000610eb084828501610e77565b91505092915050565b60008115159050919050565b610ece81610eb9565b82525050565b6000602082019050610ee96000830184610ec5565b92915050565b600080fd5b600080fd5b6000601f19601f8301169050919050565b7f4e487b7100000000000000000000000000000000000000000000000000000000600052604160045260246000fd5b610f4282610ef9565b810181811067ffffffffffffffff82111715610f6157610f60610f0a565b5b80604052505050565b6000610f74610e42565b9050610f808282610f39565b919050565b600067ffffffffffffffff821115610fa057610f9f610f0a565b5b610fa982610ef9565b9050602081019050919050565b82818337600083830152505050565b6000610fd8610fd384610f85565b610f6a565b905082815260208101848484011115610ff457610ff3610ef4565b5b610fff848285610fb6565b509392505050565b600082601f83011261101c5761101b610eef565b5b813561102c848260208601610fc5565b91505092915050565b60006020828403121561104b5761104a610e4c565b5b600082013567ffffffffffffffff81111561106957611068610e51565b5b61107584828501611007565b91505092915050565b61108781610e56565b82525050565b60006020820190506110a2600083018461107e565b92915050565b600080fd5b600080fd5b6000608082840312156110c8576110c76110a8565b5b6110d26080610f6a565b9050600082013567ffffffffffffffff8111156110f2576110f16110ad565b5b6110fe84828501611007565b600083015250602082013567ffffffffffffffff811115611122576111216110ad565b5b61112e84828501611007565b602083015250604082013567ffffffffffffffff811115611152576111516110ad565b5b61115e84828501611007565b604083015250606061117284828501610e77565b60608301525092915050565b60006020828403121561119457611193610e4c565b5b600082013567ffffffffffffffff8111156111b2576111b1610e51565b5b6111be848285016110b2565b91505092915050565b600073ffffffffffffffffffffffffffffffffffffffff82169050919050565b60006111f2826111c7565b9050919050565b611202816111e7565b811461120d57600080fd5b50565b60008135905061121f816111f9565b92915050565b60006020828403121561123b5761123a610e4c565b5b600061124984828501611210565b91505092915050565b600081519050919050565b600082825260208201905092915050565b60005b8381101561128c578082015181840152602081019050611271565b60008484015250505050565b60006112a382611252565b6112ad818561125d565b93506112bd81856020860161126e565b6112c681610ef9565b840191505092915050565b600060808201905081810360008301526112eb8187611298565b905081810360208301526112ff8186611298565b905081810360408301526113138185611298565b9050611322606083018461107e565b95945050505050565b600082825260208201905092915050565b600061134782611252565b611351818561132b565b935061136181856020860161126e565b61136a81610ef9565b840191505092915050565b61137e81610e56565b82525050565b600060808301600083015184820360008601526113a1828261133c565b915050602083015184820360208601526113bb828261133c565b915050604083015184820360408601526113d5828261133c565b91505060608301516113ea6060860182611375565b508091505092915050565b6000602082019050818103600083015261140f8184611384565b905092915050565b611420816111e7565b82525050565b600060208201905061143b6000830184611417565b92915050565b60006040820190506114566000830185611417565b611463602083018461107e565b9392505050565b61147381610eb9565b811461147e57600080fd5b50565b6000815190506114908161146a565b92915050565b6000602082840312156114ac576114ab610e4c565b5b60006114ba84828501611481565b91505092915050565b60006060820190506114d86000830186611417565b6114e56020830185611417565b6114f2604083018461107e565b949350505050565b7f506c6561736520617070726f766520746f6b656e73206265666f72652074726160008201527f6e7366657272696e670000000000000000000000000000000000000000000000602082015250565b600061155660298361125d565b9150611561826114fa565b604082019050919050565b6000602082019050818103600083015261158581611549565b9050919050565b7f4e487b7100000000000000000000000000000000000000000000000000000000600052601160045260246000fd5b60006115c682610e56565b91506115d183610e56565b92508282019050808211156115e9576115e861158c565b5b92915050565b7f4e487b7100000000000000000000000000000000000000000000000000000000600052602260045260246000fd5b6000600282049050600182168061163657607f821691505b602082108103611649576116486115ef565b5b50919050565b60008190508160005260206000209050919050565b60006020601f8301049050919050565b600082821b905092915050565b6000600883026116b17fffffffffffffffffffffffffffffffffffffffffffffffffffffffffffffffff82611674565b6116bb8683611674565b95508019841693508086168417925050509392505050565b6000819050919050565b60006116f86116f36116ee84610e56565b6116d3565b610e56565b9050919050565b6000819050919050565b611712836116dd565b61172661171e826116ff565b848454611681565b825550505050565b600090565b61173b61172e565b611746818484611709565b505050565b5b8181101561176a5761175f600082611733565b60018101905061174c565b5050565b601f8211156117af576117808161164f565b61178984611664565b81016020851015611798578190505b6117ac6117a485611664565b83018261174b565b50505b505050565b600082821c905092915050565b60006117d2600019846008026117b4565b1980831691505092915050565b60006117eb83836117c1565b9150826002028217905092915050565b61180482611252565b67ffffffffffffffff81111561181d5761181c610f0a565b5b611827825461161e565b61183282828561176e565b600060209050601f8311600181146118655760008415611853578287015190505b61185d85826117df565b8655506118c5565b601f1984166118738661164f565b60005b8281101561189b57848901518255600182019150602085019450602081019050611876565b868310156118b857848901516118b4601f8916826117c1565b8355505b6001600288020188555050505b505050505050565b6000815190506118dc81610e60565b92915050565b6000602082840312156118f8576118f7610e4c565b5b6000611906848285016118cd565b91505092915050565b60006040820190506119246000830185611417565b6119316020830184611417565b9392505050565b7f4f776e61626c653a206e6577206f776e657220697320746865207a65726f206160008201527f6464726573730000000000000000000000000000000000000000000000000000602082015250565b600061199460268361125d565b915061199f82611938565b604082019050919050565b600060208201905081810360008301526119c381611987565b9050919050565b7f4f776e61626c653a2063616c6c6572206973206e6f7420746865206f776e6572600082015250565b6000611a0060208361125d565b9150611a0b826119ca565b602082019050919050565b60006020820190508181036000830152611a2f816119f3565b905091905056fea264697066735822122011d511d2cdf78c18ac7e3e7d1fb48ce89bd1e0c65ef630f947e7b1c90d387e7d64736f6c63430008110033",
  "linkReferences": {},
  "deployedLinkReferences": {}
}